{
  "contractName": "CarbonCreditTrading",
  "abi": [
    {
      "anonymous": false,
      "inputs": [
        {
          "indexed": true,
          "internalType": "address",
          "name": "from",
          "type": "address"
        },
        {
          "indexed": true,
          "internalType": "address",
          "name": "to",
          "type": "address"
        },
        {
          "indexed": false,
          "internalType": "uint256",
          "name": "amount",
          "type": "uint256"
        }
      ],
      "name": "Transfer",
      "type": "event"
    },
    {
      "inputs": [
        {
          "internalType": "address",
          "name": "",
          "type": "address"
        }
      ],
      "name": "carbonCap",
      "outputs": [
        {
          "internalType": "uint256",
          "name": "",
          "type": "uint256"
        }
      ],
      "stateMutability": "view",
      "type": "function"
    },
    {
      "inputs": [
        {
          "internalType": "address",
          "name": "",
          "type": "address"
        }
      ],
      "name": "carbonCredits",
      "outputs": [
        {
          "internalType": "uint256",
          "name": "",
          "type": "uint256"
        }
      ],
      "stateMutability": "view",
      "type": "function"
    },
    {
      "inputs": [
        {
          "internalType": "address",
          "name": "user",
          "type": "address"
        },
        {
          "internalType": "uint256",
          "name": "cap",
          "type": "uint256"
        }
      ],
      "name": "setCarbonCap",
      "outputs": [],
      "stateMutability": "nonpayable",
      "type": "function"
    },
    {
      "inputs": [
        {
          "internalType": "address",
          "name": "user",
          "type": "address"
        },
        {
          "internalType": "uint256",
          "name": "production",
          "type": "uint256"
        }
      ],
      "name": "setInitialProduction",
      "outputs": [],
      "stateMutability": "nonpayable",
      "type": "function"
    },
    {
      "inputs": [
        {
          "internalType": "address",
          "name": "from",
          "type": "address"
        },
        {
          "internalType": "address",
          "name": "to",
          "type": "address"
        },
        {
          "internalType": "uint256",
          "name": "amount",
          "type": "uint256"
        },
        {
          "internalType": "uint256",
          "name": "price",
          "type": "uint256"
        }
      ],
      "name": "transferCarbonCredits",
      "outputs": [],
      "stateMutability": "payable",
      "type": "function"
    },
    {
      "inputs": [
        {
          "internalType": "address",
          "name": "user",
          "type": "address"
        }
      ],
      "name": "getCarbonCredits",
      "outputs": [
        {
          "internalType": "uint256",
          "name": "",
          "type": "uint256"
        }
      ],
      "stateMutability": "view",
      "type": "function"
    },
    {
      "inputs": [
        {
          "internalType": "address",
          "name": "user",
          "type": "address"
        }
      ],
      "name": "getCarbonCap",
      "outputs": [
        {
          "internalType": "uint256",
          "name": "",
          "type": "uint256"
        }
      ],
      "stateMutability": "view",
      "type": "function"
    }
  ],
  "bytecode": "0x608060405234801561000f575f80fd5b506104e68061001d5f395ff3fe60806040526004361061006e575f3560e01c80636d60ec391161004c5780636d60ec39146100f95780637aa2bdd41461012e5780637d50746b14610159578063b193c2011461018d575f80fd5b8063113b273a14610072578063507f5f0e146100a9578063698a34a6146100bc575b5f80fd5b34801561007d575f80fd5b506100a761008c3660046103e9565b6001600160a01b039091165f90815260016020526040902055565b005b6100a76100b7366004610411565b6101c1565b3480156100c7575f80fd5b506100e76100d6366004610450565b60016020525f908152604090205481565b60405190815260200160405180910390f35b348015610104575f80fd5b506100a76101133660046103e9565b6001600160a01b039091165f90815260208190526040902055565b348015610139575f80fd5b506100e7610148366004610450565b5f6020819052908152604090205481565b348015610164575f80fd5b506100e7610173366004610450565b6001600160a01b03165f9081526001602052604090205490565b348015610198575f80fd5b506100e76101a7366004610450565b6001600160a01b03165f9081526020819052604090205490565b6001600160a01b0384165f9081526020819052604090205482111561022d5760405162461bcd60e51b815260206004820152601b60248201527f496e73756666696369656e7420636172626f6e2063726564697473000000000060448201526064015b60405180910390fd5b8034146102735760405162461bcd60e51b8152602060048201526014602482015273125b98dbdc9c9958dd081c1c9a58d9481cd95b9d60621b6044820152606401610224565b6001600160a01b0383165f9081526001602090815260408083205491839052909120546102a1908490610484565b11156102ef5760405162461bcd60e51b815260206004820152601f60248201527f52656365697665722077696c6c2065786365656420636172626f6e20636170006044820152606401610224565b6001600160a01b0384165f908152602081905260408120805484929061031690849061049d565b90915550506001600160a01b0383165f9081526020819052604081208054849290610342908490610484565b90915550506040516001600160a01b0385169082156108fc029083905f818181858888f1935050505015801561037a573d5f803e3d5ffd5b50826001600160a01b0316846001600160a01b03167fddf252ad1be2c89b69c2b068fc378daa952ba7f163c4a11628f55a4df523b3ef846040516103c091815260200190565b60405180910390a350505050565b80356001600160a01b03811681146103e4575f80fd5b919050565b5f80604083850312156103fa575f80fd5b610403836103ce565b946020939093013593505050565b5f805f8060808587031215610424575f80fd5b61042d856103ce565b935061043b602086016103ce565b93969395505050506040820135916060013590565b5f60208284031215610460575f80fd5b610469826103ce565b9392505050565b634e487b7160e01b5f52601160045260245ffd5b8082018082111561049757610497610470565b92915050565b818103818111156104975761049761047056fea26469706673582212208b4a662689df7f3b88da09adf3055cab9689ed99347f63cfcb5a40b373ad6aa364736f6c63430008140033",
  "immutableReferences": {},
  "source": "// SPDX-License-Identifier: MIT\npragma solidity ^0.8.0;\n\ncontract CarbonCreditTrading {\n    // Carbon credit balance for each user\n    mapping(address => uint256) public carbonCredits;\n    // Government-defined carbon cap\n    mapping(address => uint256) public carbonCap;\n\n    // Event to track the transfer of carbon credits\n    event Transfer(address indexed from, address indexed to, uint256 amount);\n    \n    // Initialize carbon caps for users\n    function setCarbonCap(address user, uint256 cap) public {\n        carbonCap[user] = cap;\n    }\n\n    // Initialize initial carbon production for users\n    function setInitialProduction(address user, uint256 production) public {\n        carbonCredits[user] = production;\n    }\n\n    // Function to transfer carbon credits\n    function transferCarbonCredits(address from, address to, uint256 amount, uint256 price) public payable {\n        require(carbonCredits[from] >= amount, \"Insufficient carbon credits\");\n        require(msg.value == price, \"Incorrect price sent\");\n        require(carbonCredits[to] + amount <= carbonCap[to], \"Receiver will exceed carbon cap\");\n        \n        // Transfer carbon credits\n        carbonCredits[from] -= amount;\n        carbonCredits[to] += amount;\n\n        // Transfer the funds to the seller\n        payable(from).transfer(price);\n\n        emit Transfer(from, to, amount);\n    }\n\n    // Helper function to get the carbon credits of a user\n    function getCarbonCredits(address user) public view returns (uint256) {\n        return carbonCredits[user];\n    }\n\n    // Helper function to get the carbon cap of a user\n    function getCarbonCap(address user) public view returns (uint256) {\n        return carbonCap[user];\n    }\n}\n",
  "sourcePath": "/Users/artimus100/Desktop/carbon-credit-marketplace/smart-contrcats/contracts/CarbonCreditTrading.sol",
  "compiler": {
    "name": "solc",
    "version": "0.8.20+commit.a1b79de6.Emscripten.clang"
  },
  "schemaVersion": "3.4.16",
  "updatedAt": "2024-09-15T04:42:22.150Z",
  "devdoc": {
    "kind": "dev",
    "methods": {},
    "version": 1
  },
  "userdoc": {
    "kind": "user",
    "methods": {},
    "version": 1
  }
}