{
  "contractName": "CarbonCreditToken",
  "abi": [
    {
      "inputs": [],
      "stateMutability": "nonpayable",
      "type": "constructor"
    },
    {
      "inputs": [
        {
          "internalType": "address",
          "name": "sender",
          "type": "address"
        },
        {
          "internalType": "uint256",
          "name": "balance",
          "type": "uint256"
        },
        {
          "internalType": "uint256",
          "name": "needed",
          "type": "uint256"
        },
        {
          "internalType": "uint256",
          "name": "tokenId",
          "type": "uint256"
        }
      ],
      "name": "ERC1155InsufficientBalance",
      "type": "error"
    },
    {
      "inputs": [
        {
          "internalType": "address",
          "name": "approver",
          "type": "address"
        }
      ],
      "name": "ERC1155InvalidApprover",
      "type": "error"
    },
    {
      "inputs": [
        {
          "internalType": "uint256",
          "name": "idsLength",
          "type": "uint256"
        },
        {
          "internalType": "uint256",
          "name": "valuesLength",
          "type": "uint256"
        }
      ],
      "name": "ERC1155InvalidArrayLength",
      "type": "error"
    },
    {
      "inputs": [
        {
          "internalType": "address",
          "name": "operator",
          "type": "address"
        }
      ],
      "name": "ERC1155InvalidOperator",
      "type": "error"
    },
    {
      "inputs": [
        {
          "internalType": "address",
          "name": "receiver",
          "type": "address"
        }
      ],
      "name": "ERC1155InvalidReceiver",
      "type": "error"
    },
    {
      "inputs": [
        {
          "internalType": "address",
          "name": "sender",
          "type": "address"
        }
      ],
      "name": "ERC1155InvalidSender",
      "type": "error"
    },
    {
      "inputs": [
        {
          "internalType": "address",
          "name": "operator",
          "type": "address"
        },
        {
          "internalType": "address",
          "name": "owner",
          "type": "address"
        }
      ],
      "name": "ERC1155MissingApprovalForAll",
      "type": "error"
    },
    {
      "inputs": [
        {
          "internalType": "address",
          "name": "owner",
          "type": "address"
        }
      ],
      "name": "OwnableInvalidOwner",
      "type": "error"
    },
    {
      "inputs": [
        {
          "internalType": "address",
          "name": "account",
          "type": "address"
        }
      ],
      "name": "OwnableUnauthorizedAccount",
      "type": "error"
    },
    {
      "anonymous": false,
      "inputs": [
        {
          "indexed": true,
          "internalType": "address",
          "name": "account",
          "type": "address"
        },
        {
          "indexed": true,
          "internalType": "address",
          "name": "operator",
          "type": "address"
        },
        {
          "indexed": false,
          "internalType": "bool",
          "name": "approved",
          "type": "bool"
        }
      ],
      "name": "ApprovalForAll",
      "type": "event"
    },
    {
      "anonymous": false,
      "inputs": [
        {
          "indexed": true,
          "internalType": "uint256",
          "name": "tokenId",
          "type": "uint256"
        },
        {
          "indexed": false,
          "internalType": "string",
          "name": "origin",
          "type": "string"
        },
        {
          "indexed": false,
          "internalType": "string",
          "name": "certificationStandard",
          "type": "string"
        },
        {
          "indexed": false,
          "internalType": "uint256",
          "name": "amount",
          "type": "uint256"
        }
      ],
      "name": "CarbonCreditCreated",
      "type": "event"
    },
    {
      "anonymous": false,
      "inputs": [
        {
          "indexed": true,
          "internalType": "uint256",
          "name": "tokenId",
          "type": "uint256"
        },
        {
          "indexed": true,
          "internalType": "address",
          "name": "account",
          "type": "address"
        },
        {
          "indexed": false,
          "internalType": "uint256",
          "name": "amount",
          "type": "uint256"
        }
      ],
      "name": "CarbonCreditRetired",
      "type": "event"
    },
    {
      "anonymous": false,
      "inputs": [
        {
          "indexed": true,
          "internalType": "address",
          "name": "previousOwner",
          "type": "address"
        },
        {
          "indexed": true,
          "internalType": "address",
          "name": "newOwner",
          "type": "address"
        }
      ],
      "name": "OwnershipTransferred",
      "type": "event"
    },
    {
      "anonymous": false,
      "inputs": [
        {
          "indexed": true,
          "internalType": "address",
          "name": "operator",
          "type": "address"
        },
        {
          "indexed": true,
          "internalType": "address",
          "name": "from",
          "type": "address"
        },
        {
          "indexed": true,
          "internalType": "address",
          "name": "to",
          "type": "address"
        },
        {
          "indexed": false,
          "internalType": "uint256[]",
          "name": "ids",
          "type": "uint256[]"
        },
        {
          "indexed": false,
          "internalType": "uint256[]",
          "name": "values",
          "type": "uint256[]"
        }
      ],
      "name": "TransferBatch",
      "type": "event"
    },
    {
      "anonymous": false,
      "inputs": [
        {
          "indexed": true,
          "internalType": "address",
          "name": "operator",
          "type": "address"
        },
        {
          "indexed": true,
          "internalType": "address",
          "name": "from",
          "type": "address"
        },
        {
          "indexed": true,
          "internalType": "address",
          "name": "to",
          "type": "address"
        },
        {
          "indexed": false,
          "internalType": "uint256",
          "name": "id",
          "type": "uint256"
        },
        {
          "indexed": false,
          "internalType": "uint256",
          "name": "value",
          "type": "uint256"
        }
      ],
      "name": "TransferSingle",
      "type": "event"
    },
    {
      "anonymous": false,
      "inputs": [
        {
          "indexed": false,
          "internalType": "string",
          "name": "value",
          "type": "string"
        },
        {
          "indexed": true,
          "internalType": "uint256",
          "name": "id",
          "type": "uint256"
        }
      ],
      "name": "URI",
      "type": "event"
    },
    {
      "inputs": [
        {
          "internalType": "address",
          "name": "account",
          "type": "address"
        },
        {
          "internalType": "uint256",
          "name": "id",
          "type": "uint256"
        }
      ],
      "name": "balanceOf",
      "outputs": [
        {
          "internalType": "uint256",
          "name": "",
          "type": "uint256"
        }
      ],
      "stateMutability": "view",
      "type": "function"
    },
    {
      "inputs": [
        {
          "internalType": "address[]",
          "name": "accounts",
          "type": "address[]"
        },
        {
          "internalType": "uint256[]",
          "name": "ids",
          "type": "uint256[]"
        }
      ],
      "name": "balanceOfBatch",
      "outputs": [
        {
          "internalType": "uint256[]",
          "name": "",
          "type": "uint256[]"
        }
      ],
      "stateMutability": "view",
      "type": "function"
    },
    {
      "inputs": [
        {
          "internalType": "address",
          "name": "account",
          "type": "address"
        },
        {
          "internalType": "address",
          "name": "operator",
          "type": "address"
        }
      ],
      "name": "isApprovedForAll",
      "outputs": [
        {
          "internalType": "bool",
          "name": "",
          "type": "bool"
        }
      ],
      "stateMutability": "view",
      "type": "function"
    },
    {
      "inputs": [],
      "name": "owner",
      "outputs": [
        {
          "internalType": "address",
          "name": "",
          "type": "address"
        }
      ],
      "stateMutability": "view",
      "type": "function"
    },
    {
      "inputs": [],
      "name": "renounceOwnership",
      "outputs": [],
      "stateMutability": "nonpayable",
      "type": "function"
    },
    {
      "inputs": [
        {
          "internalType": "address",
          "name": "from",
          "type": "address"
        },
        {
          "internalType": "address",
          "name": "to",
          "type": "address"
        },
        {
          "internalType": "uint256[]",
          "name": "ids",
          "type": "uint256[]"
        },
        {
          "internalType": "uint256[]",
          "name": "values",
          "type": "uint256[]"
        },
        {
          "internalType": "bytes",
          "name": "data",
          "type": "bytes"
        }
      ],
      "name": "safeBatchTransferFrom",
      "outputs": [],
      "stateMutability": "nonpayable",
      "type": "function"
    },
    {
      "inputs": [
        {
          "internalType": "address",
          "name": "from",
          "type": "address"
        },
        {
          "internalType": "address",
          "name": "to",
          "type": "address"
        },
        {
          "internalType": "uint256",
          "name": "id",
          "type": "uint256"
        },
        {
          "internalType": "uint256",
          "name": "value",
          "type": "uint256"
        },
        {
          "internalType": "bytes",
          "name": "data",
          "type": "bytes"
        }
      ],
      "name": "safeTransferFrom",
      "outputs": [],
      "stateMutability": "nonpayable",
      "type": "function"
    },
    {
      "inputs": [
        {
          "internalType": "address",
          "name": "operator",
          "type": "address"
        },
        {
          "internalType": "bool",
          "name": "approved",
          "type": "bool"
        }
      ],
      "name": "setApprovalForAll",
      "outputs": [],
      "stateMutability": "nonpayable",
      "type": "function"
    },
    {
      "inputs": [
        {
          "internalType": "bytes4",
          "name": "interfaceId",
          "type": "bytes4"
        }
      ],
      "name": "supportsInterface",
      "outputs": [
        {
          "internalType": "bool",
          "name": "",
          "type": "bool"
        }
      ],
      "stateMutability": "view",
      "type": "function"
    },
    {
      "inputs": [
        {
          "internalType": "address",
          "name": "newOwner",
          "type": "address"
        }
      ],
      "name": "transferOwnership",
      "outputs": [],
      "stateMutability": "nonpayable",
      "type": "function"
    },
    {
      "inputs": [
        {
          "internalType": "string",
          "name": "origin",
          "type": "string"
        },
        {
          "internalType": "string",
          "name": "certificationStandard",
          "type": "string"
        },
        {
          "internalType": "string",
          "name": "projectDetails",
          "type": "string"
        },
        {
          "internalType": "uint256",
          "name": "environmentalImpact",
          "type": "uint256"
        },
        {
          "internalType": "uint256",
          "name": "amount",
          "type": "uint256"
        }
      ],
      "name": "createCarbonCredit",
      "outputs": [
        {
          "internalType": "uint256",
          "name": "",
          "type": "uint256"
        }
      ],
      "stateMutability": "nonpayable",
      "type": "function"
    },
    {
      "inputs": [
        {
          "internalType": "uint256",
          "name": "tokenId",
          "type": "uint256"
        }
      ],
      "name": "getCarbonCreditDetails",
      "outputs": [
        {
          "components": [
            {
              "internalType": "string",
              "name": "origin",
              "type": "string"
            },
            {
              "internalType": "string",
              "name": "certificationStandard",
              "type": "string"
            },
            {
              "internalType": "string",
              "name": "projectDetails",
              "type": "string"
            },
            {
              "internalType": "uint256",
              "name": "environmentalImpact",
              "type": "uint256"
            },
            {
              "internalType": "bool",
              "name": "retired",
              "type": "bool"
            }
          ],
          "internalType": "struct CarbonCreditToken.CarbonCredit",
          "name": "",
          "type": "tuple"
        }
      ],
      "stateMutability": "view",
      "type": "function"
    },
    {
      "inputs": [
        {
          "internalType": "uint256",
          "name": "tokenId",
          "type": "uint256"
        },
        {
          "internalType": "uint256",
          "name": "amount",
          "type": "uint256"
        }
      ],
      "name": "retire",
      "outputs": [],
      "stateMutability": "nonpayable",
      "type": "function"
    },
    {
      "inputs": [
        {
          "internalType": "address",
          "name": "account",
          "type": "address"
        },
        {
          "internalType": "uint256",
          "name": "tokenId",
          "type": "uint256"
        }
      ],
      "name": "getRetirementAmount",
      "outputs": [
        {
          "internalType": "uint256",
          "name": "",
          "type": "uint256"
        }
      ],
      "stateMutability": "view",
      "type": "function"
    },
    {
      "inputs": [
        {
          "internalType": "uint256",
          "name": "tokenId",
          "type": "uint256"
        }
      ],
      "name": "uri",
      "outputs": [
        {
          "internalType": "string",
          "name": "",
          "type": "string"
        }
      ],
      "stateMutability": "view",
      "type": "function"
    }
  ],
  "bytecode": "0x608060405234801562000010575f80fd5b503360405180606001604052806027815260200162001f416027913962000037816200007c565b506001600160a01b0381166200006657604051631e4fbdf760e01b81525f600482015260240160405180910390fd5b62000071816200008e565b505f60045562000247565b60026200008a82826200017f565b5050565b600380546001600160a01b038381166001600160a01b0319831681179093556040519116919082907f8be0079c531659141344cd1fd0a4f28419497f9722a3daafe3b4186f6b6457e0905f90a35050565b634e487b7160e01b5f52604160045260245ffd5b600181811c908216806200010857607f821691505b6020821081036200012757634e487b7160e01b5f52602260045260245ffd5b50919050565b601f8211156200017a575f81815260208120601f850160051c81016020861015620001555750805b601f850160051c820191505b81811015620001765782815560010162000161565b5050505b505050565b81516001600160401b038111156200019b576200019b620000df565b620001b381620001ac8454620000f3565b846200012d565b602080601f831160018114620001e9575f8415620001d15750858301515b5f19600386901b1c1916600185901b17855562000176565b5f85815260208120601f198616915b828110156200021957888601518255948401946001909101908401620001f8565b50858210156200023757878501515f19600388901b60f8161c191681555b5050505050600190811b01905550565b611cec80620002555f395ff3fe608060405234801561000f575f80fd5b50600436106100ef575f3560e01c80635fac574411610093578063a22cb46511610063578063a22cb4651461022f578063e985e9c514610242578063f242432a14610255578063f2fde38b14610268575f80fd5b80635fac5744146101c4578063715018a6146101f957806377704bd4146102015780638da5cb5b14610214575f80fd5b8063293a7f2e116100ce578063293a7f2e1461015c5780632eb2c2d6146101715780634afe26b4146101845780634e1273f4146101a4575f80fd5b8062fdd58e146100f357806301ffc9a7146101195780630e89341c1461013c575b5f80fd5b610106610101366004611410565b61027b565b6040519081526020015b60405180910390f35b61012c61012736600461144d565b6102a2565b6040519015158152602001610110565b61014f61014a36600461146f565b6102f1565b60405161011091906114d3565b61016f61016a3660046114e5565b6103a8565b005b61016f61017f366004611641565b61051a565b61019761019236600461146f565b610581565b60405161011091906116e4565b6101b76101b236600461175e565b6107ee565b6040516101109190611851565b6101066101d2366004611410565b6001600160a01b03919091165f908152600660209081526040808320938352929052205490565b61016f6108c1565b61010661020f366004611863565b6108d4565b6003546040516001600160a01b039091168152602001610110565b61016f61023d3660046118f6565b6109ed565b61012c61025036600461192f565b6109fc565b61016f610263366004611960565b610a29565b61016f6102763660046119c0565b610a88565b5f818152602081815260408083206001600160a01b03861684529091529020545b92915050565b5f6001600160e01b03198216636cdb3d1360e11b14806102d257506001600160e01b031982166303a24d0760e21b145b8061029c57506301ffc9a760e01b6001600160e01b031983161461029c565b5f8181526005602052604090206003015460609061036f5760405162461bcd60e51b815260206004820152603060248201527f455243313135354d657461646174613a2055524920717565727920666f72206e60448201526f37b732bc34b9ba32b73a103a37b5b2b760811b60648201526084015b60405180910390fd5b61037882610ac5565b61038183610b57565b6040516020016103929291906119d9565b6040516020818303038152906040529050919050565b5f828152600560205260409020600301546103fc5760405162461bcd60e51b8152602060048201526014602482015273151bdad95b88191bd95cc81b9bdd08195e1a5cdd60621b6044820152606401610366565b80610407338461027b565b101561044c5760405162461bcd60e51b8152602060048201526014602482015273496e73756666696369656e742062616c616e636560601b6044820152606401610366565b5f8281526005602052604090206004015460ff16156104a65760405162461bcd60e51b815260206004820152601660248201527510dc99591a5d08185b1c9958591e481c995d1a5c995960521b6044820152606401610366565b6104b1338383610be7565b335f908152600660209081526040808320858452909152812080548392906104da908490611a1b565b9091555050604051818152339083907f74d0211a6563edc79b08a3e3b7514297e43260851da4cea179669b1f84b991769060200160405180910390a35050565b336001600160a01b038616811480159061053b575061053986826109fc565b155b1561056c5760405163711bec9160e11b81526001600160a01b03808316600483015287166024820152604401610366565b6105798686868686610c54565b505050505050565b6105b36040518060a001604052806060815260200160608152602001606081526020015f81526020015f151581525090565b5f828152600560205260409020600301546106075760405162461bcd60e51b8152602060048201526014602482015273151bdad95b88191bd95cc81b9bdd08195e1a5cdd60621b6044820152606401610366565b5f8281526005602052604090819020815160a0810190925280548290829061062e90611a2e565b80601f016020809104026020016040519081016040528092919081815260200182805461065a90611a2e565b80156106a55780601f1061067c576101008083540402835291602001916106a5565b820191905f5260205f20905b81548152906001019060200180831161068857829003601f168201915b505050505081526020016001820180546106be90611a2e565b80601f01602080910402602001604051908101604052809291908181526020018280546106ea90611a2e565b80156107355780601f1061070c57610100808354040283529160200191610735565b820191905f5260205f20905b81548152906001019060200180831161071857829003601f168201915b5050505050815260200160028201805461074e90611a2e565b80601f016020809104026020016040519081016040528092919081815260200182805461077a90611a2e565b80156107c55780601f1061079c576101008083540402835291602001916107c5565b820191905f5260205f20905b8154815290600101906020018083116107a857829003601f168201915b50505091835250506003820154602082015260049091015460ff16151560409091015292915050565b6060815183511461081f5781518351604051635b05999160e01b815260048101929092526024820152604401610366565b5f835167ffffffffffffffff81111561083a5761083a611505565b604051908082528060200260200182016040528015610863578160200160208202803683370190505b5090505f5b84518110156108b95760208082028601015161088c9060208084028701015161027b565b82828151811061089e5761089e611a66565b60209081029190910101526108b281611a7a565b9050610868565b509392505050565b6108c9610cb2565b6108d25f610cdf565b565b5f6108dd610cb2565b600160045f8282546108ef9190611a1b565b90915550506004546040805160a0810182528881526020808201899052818301889052606082018790525f608083018190528481526005909152919091208151819061093b9082611adc565b50602082015160018201906109509082611adc565b50604082015160028201906109659082611adc565b50606082015160038201556080909101516004909101805460ff191691151591909117905560408051602081019091525f81526109a790339083908690610d30565b807f303892cb5f9c058da20b164139d26c514a66b6b288a5daf0277ce8da35cf10268888866040516109db93929190611b98565b60405180910390a29695505050505050565b6109f8338383610d8b565b5050565b6001600160a01b039182165f90815260016020908152604080832093909416825291909152205460ff1690565b336001600160a01b0386168114801590610a4a5750610a4886826109fc565b155b15610a7b5760405163711bec9160e11b81526001600160a01b03808316600483015287166024820152604401610366565b6105798686868686610e1f565b610a90610cb2565b6001600160a01b038116610ab957604051631e4fbdf760e01b81525f6004820152602401610366565b610ac281610cdf565b50565b606060028054610ad490611a2e565b80601f0160208091040260200160405190810160405280929190818152602001828054610b0090611a2e565b8015610b4b5780601f10610b2257610100808354040283529160200191610b4b565b820191905f5260205f20905b815481529060010190602001808311610b2e57829003601f168201915b50505050509050919050565b60605f610b6383610eab565b60010190505f8167ffffffffffffffff811115610b8257610b82611505565b6040519080825280601f01601f191660200182016040528015610bac576020820181803683370190505b5090508181016020015b5f19016f181899199a1a9b1b9c1cb0b131b232b360811b600a86061a8153600a8504945084610bb657509392505050565b6001600160a01b038316610c0f57604051626a0d4560e21b81525f6004820152602401610366565b604080516001808252602082018590528183019081526060820184905260a082019092525f60808201818152919291610c4d91879185908590610f82565b5050505050565b6001600160a01b038416610c7d57604051632bfa23e760e11b81525f6004820152602401610366565b6001600160a01b038516610ca557604051626a0d4560e21b81525f6004820152602401610366565b610c4d8585858585610f82565b6003546001600160a01b031633146108d25760405163118cdaa760e01b8152336004820152602401610366565b600380546001600160a01b038381166001600160a01b0319831681179093556040519116919082907f8be0079c531659141344cd1fd0a4f28419497f9722a3daafe3b4186f6b6457e0905f90a35050565b6001600160a01b038416610d5957604051632bfa23e760e11b81525f6004820152602401610366565b604080516001808252602082018690528183019081526060820185905260808201909252906105795f87848487610f82565b6001600160a01b038216610db35760405162ced3e160e81b81525f6004820152602401610366565b6001600160a01b038381165f81815260016020908152604080832094871680845294825291829020805460ff191686151590811790915591519182527f17307eab39ab6107e8899845ad3d59bd9653f200f220920489ca2b5937696c31910160405180910390a3505050565b6001600160a01b038416610e4857604051632bfa23e760e11b81525f6004820152602401610366565b6001600160a01b038516610e7057604051626a0d4560e21b81525f6004820152602401610366565b60408051600180825260208201869052818301908152606082018590526080820190925290610ea28787848487610f82565b50505050505050565b5f8072184f03e93ff9f4daa797ed6e38ed64bf6a1f0160401b8310610ee95772184f03e93ff9f4daa797ed6e38ed64bf6a1f0160401b830492506040015b6d04ee2d6d415b85acef81000000008310610f15576d04ee2d6d415b85acef8100000000830492506020015b662386f26fc100008310610f3357662386f26fc10000830492506010015b6305f5e1008310610f4b576305f5e100830492506008015b6127108310610f5f57612710830492506004015b60648310610f71576064830492506002015b600a831061029c5760010192915050565b610f8e85858585610fd5565b6001600160a01b03841615610c4d5782513390600103610fc75760208481015190840151610fc08389898585896111ed565b5050610579565b61057981878787878761130e565b80518251146110045781518151604051635b05999160e01b815260048101929092526024820152604401610366565b335f5b835181101561110f576020818102858101820151908501909101516001600160a01b038816156110b8575f828152602081815260408083206001600160a01b038c16845290915290205481811015611092576040516303dee4c560e01b81526001600160a01b038a166004820152602481018290526044810183905260648101849052608401610366565b5f838152602081815260408083206001600160a01b038d16845290915290209082900390555b6001600160a01b038716156110fc575f828152602081815260408083206001600160a01b038b168452909152812080548392906110f6908490611a1b565b90915550505b50508061110890611a7a565b9050611007565b50825160010361118f5760208301515f906020840151909150856001600160a01b0316876001600160a01b0316846001600160a01b03167fc3d58168c5ae7397731d063d5bbf3d657854427343f4c083240f7aacaa2d0f628585604051611180929190918252602082015260400190565b60405180910390a45050610c4d565b836001600160a01b0316856001600160a01b0316826001600160a01b03167f4a39dc06d4c0dbc64b70af90fd698a233a518aa5d07e595d983b8c0526c8f7fb86866040516111de929190611bcd565b60405180910390a45050505050565b6001600160a01b0384163b156105795760405163f23a6e6160e01b81526001600160a01b0385169063f23a6e61906112319089908990889088908890600401611bfa565b6020604051808303815f875af192505050801561126b575060408051601f3d908101601f1916820190925261126891810190611c3e565b60015b6112d2573d808015611298576040519150601f19603f3d011682016040523d82523d5f602084013e61129d565b606091505b5080515f036112ca57604051632bfa23e760e11b81526001600160a01b0386166004820152602401610366565b805181602001fd5b6001600160e01b0319811663f23a6e6160e01b14610ea257604051632bfa23e760e11b81526001600160a01b0386166004820152602401610366565b6001600160a01b0384163b156105795760405163bc197c8160e01b81526001600160a01b0385169063bc197c81906113529089908990889088908890600401611c59565b6020604051808303815f875af192505050801561138c575060408051601f3d908101601f1916820190925261138991810190611c3e565b60015b6113b9573d808015611298576040519150601f19603f3d011682016040523d82523d5f602084013e61129d565b6001600160e01b0319811663bc197c8160e01b14610ea257604051632bfa23e760e11b81526001600160a01b0386166004820152602401610366565b80356001600160a01b038116811461140b575f80fd5b919050565b5f8060408385031215611421575f80fd5b61142a836113f5565b946020939093013593505050565b6001600160e01b031981168114610ac2575f80fd5b5f6020828403121561145d575f80fd5b813561146881611438565b9392505050565b5f6020828403121561147f575f80fd5b5035919050565b5f5b838110156114a0578181015183820152602001611488565b50505f910152565b5f81518084526114bf816020860160208601611486565b601f01601f19169290920160200192915050565b602081525f61146860208301846114a8565b5f80604083850312156114f6575f80fd5b50508035926020909101359150565b634e487b7160e01b5f52604160045260245ffd5b604051601f8201601f1916810167ffffffffffffffff8111828210171561154257611542611505565b604052919050565b5f67ffffffffffffffff82111561156357611563611505565b5060051b60200190565b5f82601f83011261157c575f80fd5b8135602061159161158c8361154a565b611519565b82815260059290921b840181019181810190868411156115af575f80fd5b8286015b848110156115ca57803583529183019183016115b3565b509695505050505050565b5f82601f8301126115e4575f80fd5b813567ffffffffffffffff8111156115fe576115fe611505565b611611601f8201601f1916602001611519565b818152846020838601011115611625575f80fd5b816020850160208301375f918101602001919091529392505050565b5f805f805f60a08688031215611655575f80fd5b61165e866113f5565b945061166c602087016113f5565b9350604086013567ffffffffffffffff80821115611688575f80fd5b61169489838a0161156d565b945060608801359150808211156116a9575f80fd5b6116b589838a0161156d565b935060808801359150808211156116ca575f80fd5b506116d7888289016115d5565b9150509295509295909350565b602081525f825160a060208401526116ff60c08401826114a8565b90506020840151601f198085840301604086015261171d83836114a8565b925060408601519150808584030160608601525061173b82826114a8565b915050606084015160808401526080840151151560a08401528091505092915050565b5f806040838503121561176f575f80fd5b823567ffffffffffffffff80821115611786575f80fd5b818501915085601f830112611799575f80fd5b813560206117a961158c8361154a565b82815260059290921b840181019181810190898411156117c7575f80fd5b948201945b838610156117ec576117dd866113f5565b825294820194908201906117cc565b96505086013592505080821115611801575f80fd5b5061180e8582860161156d565b9150509250929050565b5f8151808452602080850194508084015f5b838110156118465781518752958201959082019060010161182a565b509495945050505050565b602081525f6114686020830184611818565b5f805f805f60a08688031215611877575f80fd5b853567ffffffffffffffff8082111561188e575f80fd5b61189a89838a016115d5565b965060208801359150808211156118af575f80fd5b6118bb89838a016115d5565b955060408801359150808211156118d0575f80fd5b506118dd888289016115d5565b9598949750949560608101359550608001359392505050565b5f8060408385031215611907575f80fd5b611910836113f5565b915060208301358015158114611924575f80fd5b809150509250929050565b5f8060408385031215611940575f80fd5b611949836113f5565b9150611957602084016113f5565b90509250929050565b5f805f805f60a08688031215611974575f80fd5b61197d866113f5565b945061198b602087016113f5565b93506040860135925060608601359150608086013567ffffffffffffffff8111156119b4575f80fd5b6116d7888289016115d5565b5f602082840312156119d0575f80fd5b611468826113f5565b5f83516119ea818460208801611486565b8351908301906119fe818360208801611486565b01949350505050565b634e487b7160e01b5f52601160045260245ffd5b8082018082111561029c5761029c611a07565b600181811c90821680611a4257607f821691505b602082108103611a6057634e487b7160e01b5f52602260045260245ffd5b50919050565b634e487b7160e01b5f52603260045260245ffd5b5f60018201611a8b57611a8b611a07565b5060010190565b601f821115611ad7575f81815260208120601f850160051c81016020861015611ab85750805b601f850160051c820191505b8181101561057957828155600101611ac4565b505050565b815167ffffffffffffffff811115611af657611af6611505565b611b0a81611b048454611a2e565b84611a92565b602080601f831160018114611b3d575f8415611b265750858301515b5f19600386901b1c1916600185901b178555610579565b5f85815260208120601f198616915b82811015611b6b57888601518255948401946001909101908401611b4c565b5085821015611b8857878501515f19600388901b60f8161c191681555b5050505050600190811b01905550565b606081525f611baa60608301866114a8565b8281036020840152611bbc81866114a8565b915050826040830152949350505050565b604081525f611bdf6040830185611818565b8281036020840152611bf18185611818565b95945050505050565b6001600160a01b03868116825285166020820152604081018490526060810183905260a0608082018190525f90611c33908301846114a8565b979650505050505050565b5f60208284031215611c4e575f80fd5b815161146881611438565b6001600160a01b0386811682528516602082015260a0604082018190525f90611c8490830186611818565b8281036060840152611c968186611818565b90508281036080840152611caa81856114a8565b9897505050505050505056fea264697066735822122061061a73b06eb65f056e84d04ca97ac7f27837b5fd79539ffbab5364ca74f29264736f6c6343000814003368747470733a2f2f6170692e6578616d706c652e636f6d2f746f6b656e2f7b69647d2e6a736f6e",
  "immutableReferences": {},
  "source": "// SPDX-License-Identifier: MIT\npragma solidity ^0.8.20;\n\nimport \"@openzeppelin/contracts/token/ERC1155/ERC1155.sol\";\nimport \"@openzeppelin/contracts/access/Ownable.sol\";\nimport \"@openzeppelin/contracts/utils/Strings.sol\";\n\ncontract CarbonCreditToken is ERC1155, Ownable {\n    using Strings for uint256;\n\n    uint256 private _currentTokenId;\n    \n    struct CarbonCredit {\n        string origin;\n        string certificationStandard;\n        string projectDetails;\n        uint256 environmentalImpact;\n        bool retired;\n    }\n\n    mapping(uint256 => CarbonCredit) private _carbonCredits;\n    mapping(address => mapping(uint256 => uint256)) private _retirements;\n\n    event CarbonCreditCreated(uint256 indexed tokenId, string origin, string certificationStandard, uint256 amount);\n    event CarbonCreditRetired(uint256 indexed tokenId, address indexed account, uint256 amount);\n\n    constructor() ERC1155(\"https://api.example.com/token/{id}.json\") Ownable(msg.sender) {\n        _currentTokenId = 0;\n    }\n\n    function createCarbonCredit(\n        string memory origin,\n        string memory certificationStandard,\n        string memory projectDetails,\n        uint256 environmentalImpact,\n        uint256 amount\n    ) public onlyOwner returns (uint256) {\n        _currentTokenId += 1;\n        uint256 newTokenId = _currentTokenId;\n\n        _carbonCredits[newTokenId] = CarbonCredit(\n            origin,\n            certificationStandard,\n            projectDetails,\n            environmentalImpact,\n            false\n        );\n\n        _mint(msg.sender, newTokenId, amount, \"\");\n\n        emit CarbonCreditCreated(newTokenId, origin, certificationStandard, amount);\n\n        return newTokenId;\n    }\n\n    function getCarbonCreditDetails(uint256 tokenId) public view returns (CarbonCredit memory) {\n        require(_exists(tokenId), \"Token does not exist\");\n        return _carbonCredits[tokenId];\n    }\n\n    function retire(uint256 tokenId, uint256 amount) public {\n        require(_exists(tokenId), \"Token does not exist\");\n        require(balanceOf(msg.sender, tokenId) >= amount, \"Insufficient balance\");\n        require(!_carbonCredits[tokenId].retired, \"Credit already retired\");\n\n        _burn(msg.sender, tokenId, amount);\n        _retirements[msg.sender][tokenId] += amount;\n\n        emit CarbonCreditRetired(tokenId, msg.sender, amount);\n    }\n\n    function getRetirementAmount(address account, uint256 tokenId) public view returns (uint256) {\n        return _retirements[account][tokenId];\n    }\n\n    function uri(uint256 tokenId) public view virtual override returns (string memory) {\n        require(_exists(tokenId), \"ERC1155Metadata: URI query for nonexistent token\");\n        return string(abi.encodePacked(super.uri(tokenId), tokenId.toString()));\n    }\n\n    function _exists(uint256 tokenId) internal view returns (bool) {\n        return _carbonCredits[tokenId].environmentalImpact != 0;\n    }\n}",
  "sourcePath": "/Users/artimus100/Desktop/carbon-credit-marketplace/smart-contrcats/contracts/CarbonCredit.sol",
  "compiler": {
    "name": "solc",
    "version": "0.8.20+commit.a1b79de6.Emscripten.clang"
  },
  "schemaVersion": "3.4.16",
  "updatedAt": "2024-09-15T04:42:22.143Z",
  "devdoc": {
    "errors": {
      "ERC1155InsufficientBalance(address,uint256,uint256,uint256)": [
        {
          "details": "Indicates an error related to the current `balance` of a `sender`. Used in transfers.",
          "params": {
            "balance": "Current balance for the interacting account.",
            "needed": "Minimum amount required to perform a transfer.",
            "sender": "Address whose tokens are being transferred.",
            "tokenId": "Identifier number of a token."
          }
        }
      ],
      "ERC1155InvalidApprover(address)": [
        {
          "details": "Indicates a failure with the `approver` of a token to be approved. Used in approvals.",
          "params": {
            "approver": "Address initiating an approval operation."
          }
        }
      ],
      "ERC1155InvalidArrayLength(uint256,uint256)": [
        {
          "details": "Indicates an array length mismatch between ids and values in a safeBatchTransferFrom operation. Used in batch transfers.",
          "params": {
            "idsLength": "Length of the array of token identifiers",
            "valuesLength": "Length of the array of token amounts"
          }
        }
      ],
      "ERC1155InvalidOperator(address)": [
        {
          "details": "Indicates a failure with the `operator` to be approved. Used in approvals.",
          "params": {
            "operator": "Address that may be allowed to operate on tokens without being their owner."
          }
        }
      ],
      "ERC1155InvalidReceiver(address)": [
        {
          "details": "Indicates a failure with the token `receiver`. Used in transfers.",
          "params": {
            "receiver": "Address to which tokens are being transferred."
          }
        }
      ],
      "ERC1155InvalidSender(address)": [
        {
          "details": "Indicates a failure with the token `sender`. Used in transfers.",
          "params": {
            "sender": "Address whose tokens are being transferred."
          }
        }
      ],
      "ERC1155MissingApprovalForAll(address,address)": [
        {
          "details": "Indicates a failure with the `operator`s approval. Used in transfers.",
          "params": {
            "operator": "Address that may be allowed to operate on tokens without being their owner.",
            "owner": "Address of the current owner of a token."
          }
        }
      ],
      "OwnableInvalidOwner(address)": [
        {
          "details": "The owner is not a valid owner account. (eg. `address(0)`)"
        }
      ],
      "OwnableUnauthorizedAccount(address)": [
        {
          "details": "The caller account is not authorized to perform an operation."
        }
      ]
    },
    "events": {
      "ApprovalForAll(address,address,bool)": {
        "details": "Emitted when `account` grants or revokes permission to `operator` to transfer their tokens, according to `approved`."
      },
      "TransferBatch(address,address,address,uint256[],uint256[])": {
        "details": "Equivalent to multiple {TransferSingle} events, where `operator`, `from` and `to` are the same for all transfers."
      },
      "TransferSingle(address,address,address,uint256,uint256)": {
        "details": "Emitted when `value` amount of tokens of type `id` are transferred from `from` to `to` by `operator`."
      },
      "URI(string,uint256)": {
        "details": "Emitted when the URI for token type `id` changes to `value`, if it is a non-programmatic URI. If an {URI} event was emitted for `id`, the standard https://eips.ethereum.org/EIPS/eip-1155#metadata-extensions[guarantees] that `value` will equal the value returned by {IERC1155MetadataURI-uri}."
      }
    },
    "kind": "dev",
    "methods": {
      "balanceOf(address,uint256)": {
        "details": "See {IERC1155-balanceOf}."
      },
      "balanceOfBatch(address[],uint256[])": {
        "details": "See {IERC1155-balanceOfBatch}. Requirements: - `accounts` and `ids` must have the same length."
      },
      "isApprovedForAll(address,address)": {
        "details": "See {IERC1155-isApprovedForAll}."
      },
      "owner()": {
        "details": "Returns the address of the current owner."
      },
      "renounceOwnership()": {
        "details": "Leaves the contract without owner. It will not be possible to call `onlyOwner` functions. Can only be called by the current owner. NOTE: Renouncing ownership will leave the contract without an owner, thereby disabling any functionality that is only available to the owner."
      },
      "safeBatchTransferFrom(address,address,uint256[],uint256[],bytes)": {
        "details": "See {IERC1155-safeBatchTransferFrom}."
      },
      "safeTransferFrom(address,address,uint256,uint256,bytes)": {
        "details": "See {IERC1155-safeTransferFrom}."
      },
      "setApprovalForAll(address,bool)": {
        "details": "See {IERC1155-setApprovalForAll}."
      },
      "supportsInterface(bytes4)": {
        "details": "See {IERC165-supportsInterface}."
      },
      "transferOwnership(address)": {
        "details": "Transfers ownership of the contract to a new account (`newOwner`). Can only be called by the current owner."
      }
    },
    "version": 1
  },
  "userdoc": {
    "kind": "user",
    "methods": {},
    "version": 1
  }
}