{
  "contractName": "CarbonCredit",
  "abi": [
    {
      "inputs": [],
      "stateMutability": "nonpayable",
      "type": "constructor"
    },
    {
      "anonymous": false,
      "inputs": [
        {
          "indexed": false,
          "internalType": "uint256",
          "name": "tokenId",
          "type": "uint256"
        },
        {
          "indexed": false,
          "internalType": "address",
          "name": "owner",
          "type": "address"
        },
        {
          "components": [
            {
              "internalType": "string",
              "name": "origin",
              "type": "string"
            },
            {
              "internalType": "string",
              "name": "certificationStandard",
              "type": "string"
            },
            {
              "internalType": "string",
              "name": "projectDetails",
              "type": "string"
            },
            {
              "internalType": "uint256",
              "name": "environmentalImpact",
              "type": "uint256"
            },
            {
              "internalType": "bool",
              "name": "retired",
              "type": "bool"
            }
          ],
          "indexed": false,
          "internalType": "struct CarbonCredit.CreditDetails",
          "name": "details",
          "type": "tuple"
        }
      ],
      "name": "CreditMinted",
      "type": "event"
    },
    {
      "anonymous": false,
      "inputs": [
        {
          "indexed": false,
          "internalType": "uint256",
          "name": "tokenId",
          "type": "uint256"
        },
        {
          "indexed": false,
          "internalType": "address",
          "name": "owner",
          "type": "address"
        }
      ],
      "name": "CreditRetired",
      "type": "event"
    },
    {
      "anonymous": false,
      "inputs": [
        {
          "indexed": true,
          "internalType": "address",
          "name": "from",
          "type": "address"
        },
        {
          "indexed": true,
          "internalType": "address",
          "name": "to",
          "type": "address"
        },
        {
          "indexed": true,
          "internalType": "uint256",
          "name": "tokenId",
          "type": "uint256"
        }
      ],
      "name": "Transfer",
      "type": "event"
    },
    {
      "inputs": [
        {
          "internalType": "uint256",
          "name": "",
          "type": "uint256"
        }
      ],
      "name": "creditDetails",
      "outputs": [
        {
          "internalType": "string",
          "name": "origin",
          "type": "string"
        },
        {
          "internalType": "string",
          "name": "certificationStandard",
          "type": "string"
        },
        {
          "internalType": "string",
          "name": "projectDetails",
          "type": "string"
        },
        {
          "internalType": "uint256",
          "name": "environmentalImpact",
          "type": "uint256"
        },
        {
          "internalType": "bool",
          "name": "retired",
          "type": "bool"
        }
      ],
      "stateMutability": "view",
      "type": "function"
    },
    {
      "inputs": [
        {
          "internalType": "address",
          "name": "recipient",
          "type": "address"
        },
        {
          "internalType": "string",
          "name": "origin",
          "type": "string"
        },
        {
          "internalType": "string",
          "name": "certificationStandard",
          "type": "string"
        },
        {
          "internalType": "string",
          "name": "projectDetails",
          "type": "string"
        },
        {
          "internalType": "uint256",
          "name": "environmentalImpact",
          "type": "uint256"
        }
      ],
      "name": "mintCredit",
      "outputs": [
        {
          "internalType": "uint256",
          "name": "",
          "type": "uint256"
        }
      ],
      "stateMutability": "nonpayable",
      "type": "function"
    },
    {
      "inputs": [
        {
          "internalType": "uint256",
          "name": "tokenId",
          "type": "uint256"
        }
      ],
      "name": "retireCredit",
      "outputs": [],
      "stateMutability": "nonpayable",
      "type": "function"
    },
    {
      "inputs": [
        {
          "internalType": "uint256",
          "name": "tokenId",
          "type": "uint256"
        }
      ],
      "name": "getCreditDetails",
      "outputs": [
        {
          "components": [
            {
              "internalType": "string",
              "name": "origin",
              "type": "string"
            },
            {
              "internalType": "string",
              "name": "certificationStandard",
              "type": "string"
            },
            {
              "internalType": "string",
              "name": "projectDetails",
              "type": "string"
            },
            {
              "internalType": "uint256",
              "name": "environmentalImpact",
              "type": "uint256"
            },
            {
              "internalType": "bool",
              "name": "retired",
              "type": "bool"
            }
          ],
          "internalType": "struct CarbonCredit.CreditDetails",
          "name": "",
          "type": "tuple"
        }
      ],
      "stateMutability": "view",
      "type": "function"
    },
    {
      "inputs": [],
      "name": "getCurrentTokenId",
      "outputs": [
        {
          "internalType": "uint256",
          "name": "",
          "type": "uint256"
        }
      ],
      "stateMutability": "view",
      "type": "function"
    },
    {
      "inputs": [
        {
          "internalType": "address",
          "name": "from",
          "type": "address"
        },
        {
          "internalType": "address",
          "name": "to",
          "type": "address"
        },
        {
          "internalType": "uint256",
          "name": "tokenId",
          "type": "uint256"
        }
      ],
      "name": "transferFrom",
      "outputs": [],
      "stateMutability": "nonpayable",
      "type": "function"
    },
    {
      "inputs": [
        {
          "internalType": "uint256",
          "name": "tokenId",
          "type": "uint256"
        }
      ],
      "name": "ownerOf",
      "outputs": [
        {
          "internalType": "address",
          "name": "",
          "type": "address"
        }
      ],
      "stateMutability": "view",
      "type": "function"
    }
  ],
  "bytecode": "0x608060405234801561000f575f80fd5b505f80546001600160a01b03191633178155600155610f2f806100315f395ff3fe608060405234801561000f575f80fd5b506004361061007a575f3560e01c80636352211e116100585780636352211e146100c157806385775d47146100ec578063eb899eeb14610110578063f85aafbd14610123575f80fd5b806323b872dd1461007e578063360f3ec61461009357806356189236146100b9575b5f80fd5b61009161008c3660046109f9565b610143565b005b6100a66100a1366004610acf565b610261565b6040519081526020015b60405180910390f35b6001546100a6565b6100d46100cf366004610b69565b610416565b6040516001600160a01b0390911681526020016100b0565b6100ff6100fa366004610b69565b610477565b6040516100b0959493929190610bc3565b61009161011e366004610b69565b61063a565b610136610131366004610b69565b61076a565b6040516100b09190610c15565b5f818152600260205260409020546001600160a01b038481169116146101b05760405162461bcd60e51b815260206004820152601d60248201527f46726f6d2061646472657373206973206e6f7420746865206f776e657200000060448201526064015b60405180910390fd5b6001600160a01b0382166102065760405162461bcd60e51b815260206004820152601c60248201527f5472616e7366657220746f20746865207a65726f20616464726573730000000060448201526064016101a7565b5f8181526002602052604080822080546001600160a01b0319166001600160a01b0386811691821790925591518493918716917fddf252ad1be2c89b69c2b068fc378daa952ba7f163c4a11628f55a4df523b3ef91a4505050565b5f80546001600160a01b031633146102bb5760405162461bcd60e51b815260206004820152601760248201527f43616c6c6572206973206e6f7420746865206f776e657200000000000000000060448201526064016101a7565b60018054905f6102ca83610c8f565b90915550506001545f81815260026020908152604080832080546001600160a01b0319166001600160a01b038c16179055805160a08101825289815280830189905280820188905260608101879052608081018490528484526003909252909120815181906103399082610d39565b506020820151600182019061034e9082610d39565b50604082015160028201906103639082610d39565b5060608201516003828101919091556080909201516004909101805460ff19169115159190911790555f82815260209190915260409081902090517f5674c5f6cc2a526f708f109273b1917254deef695fa826ed9c785814406d2378916103cd9184918b91610e6e565b60405180910390a160405181906001600160a01b038916905f907fddf252ad1be2c89b69c2b068fc378daa952ba7f163c4a11628f55a4df523b3ef908290a49695505050505050565b5f818152600260205260408120546001600160a01b0316806104715760405162461bcd60e51b8152602060048201526014602482015273151bdad95b88191bd95cc81b9bdd08195e1a5cdd60621b60448201526064016101a7565b92915050565b60036020525f908152604090208054819061049190610cb3565b80601f01602080910402602001604051908101604052809291908181526020018280546104bd90610cb3565b80156105085780601f106104df57610100808354040283529160200191610508565b820191905f5260205f20905b8154815290600101906020018083116104eb57829003601f168201915b50505050509080600101805461051d90610cb3565b80601f016020809104026020016040519081016040528092919081815260200182805461054990610cb3565b80156105945780601f1061056b57610100808354040283529160200191610594565b820191905f5260205f20905b81548152906001019060200180831161057757829003601f168201915b5050505050908060020180546105a990610cb3565b80601f01602080910402602001604051908101604052809291908181526020018280546105d590610cb3565b80156106205780601f106105f757610100808354040283529160200191610620565b820191905f5260205f20905b81548152906001019060200180831161060357829003601f168201915b50505050600383015460049093015491929160ff16905085565b5f818152600260205260409020546001600160a01b0316331461069f5760405162461bcd60e51b815260206004820152601d60248201527f43616c6c6572206973206e6f742074686520746f6b656e206f776e657200000060448201526064016101a7565b5f8181526003602052604090206004015460ff16156107005760405162461bcd60e51b815260206004820152601960248201527f43726564697420697320616c726561647920726574697265640000000000000060448201526064016101a7565b5f8181526003602052604090819020600401805460ff19166001179055517fa0f88bdc93ff6217657196ec633234f6709c7e841f6bfc701d62861f30e40f0c9061075f90839033909182526001600160a01b0316602082015260400190565b60405180910390a150565b61079c6040518060a001604052806060815260200160608152602001606081526020015f81526020015f151581525090565b5f828152600260205260409020546001600160a01b03166107f75760405162461bcd60e51b815260206004820152601560248201527410dc99591a5d08191bd95cc81b9bdd08195e1a5cdd605a1b60448201526064016101a7565b5f8281526003602052604090819020815160a0810190925280548290829061081e90610cb3565b80601f016020809104026020016040519081016040528092919081815260200182805461084a90610cb3565b80156108955780601f1061086c57610100808354040283529160200191610895565b820191905f5260205f20905b81548152906001019060200180831161087857829003601f168201915b505050505081526020016001820180546108ae90610cb3565b80601f01602080910402602001604051908101604052809291908181526020018280546108da90610cb3565b80156109255780601f106108fc57610100808354040283529160200191610925565b820191905f5260205f20905b81548152906001019060200180831161090857829003601f168201915b5050505050815260200160028201805461093e90610cb3565b80601f016020809104026020016040519081016040528092919081815260200182805461096a90610cb3565b80156109b55780601f1061098c576101008083540402835291602001916109b5565b820191905f5260205f20905b81548152906001019060200180831161099857829003601f168201915b50505091835250506003820154602082015260049091015460ff16151560409091015292915050565b80356001600160a01b03811681146109f4575f80fd5b919050565b5f805f60608486031215610a0b575f80fd5b610a14846109de565b9250610a22602085016109de565b9150604084013590509250925092565b634e487b7160e01b5f52604160045260245ffd5b5f82601f830112610a55575f80fd5b813567ffffffffffffffff80821115610a7057610a70610a32565b604051601f8301601f19908116603f01168101908282118183101715610a9857610a98610a32565b81604052838152866020858801011115610ab0575f80fd5b836020870160208301375f602085830101528094505050505092915050565b5f805f805f60a08688031215610ae3575f80fd5b610aec866109de565b9450602086013567ffffffffffffffff80821115610b08575f80fd5b610b1489838a01610a46565b95506040880135915080821115610b29575f80fd5b610b3589838a01610a46565b94506060880135915080821115610b4a575f80fd5b50610b5788828901610a46565b95989497509295608001359392505050565b5f60208284031215610b79575f80fd5b5035919050565b5f81518084525f5b81811015610ba457602081850181015186830182015201610b88565b505f602082860101526020601f19601f83011685010191505092915050565b60a081525f610bd560a0830188610b80565b8281036020840152610be78188610b80565b90508281036040840152610bfb8187610b80565b606084019590955250509015156080909101529392505050565b602081525f825160a06020840152610c3060c0840182610b80565b90506020840151601f1980858403016040860152610c4e8383610b80565b9250604086015191508085840301606086015250610c6c8282610b80565b915050606084015160808401526080840151151560a08401528091505092915050565b5f60018201610cac57634e487b7160e01b5f52601160045260245ffd5b5060010190565b600181811c90821680610cc757607f821691505b602082108103610ce557634e487b7160e01b5f52602260045260245ffd5b50919050565b601f821115610d34575f81815260208120601f850160051c81016020861015610d115750805b601f850160051c820191505b81811015610d3057828155600101610d1d565b5050505b505050565b815167ffffffffffffffff811115610d5357610d53610a32565b610d6781610d618454610cb3565b84610ceb565b602080601f831160018114610d9a575f8415610d835750858301515b5f19600386901b1c1916600185901b178555610d30565b5f85815260208120601f198616915b82811015610dc857888601518255948401946001909101908401610da9565b5085821015610de557878501515f19600388901b60f8161c191681555b5050505050600190811b01905550565b5f8154610e0181610cb3565b808552602060018381168015610e1e5760018114610e3857610e63565b60ff1985168884015283151560051b880183019550610e63565b865f52825f205f5b85811015610e5b5781548a8201860152908301908401610e40565b890184019650505b505050505092915050565b8381526001600160a01b038316602082015260606040820181905260a0908201525f610e9e610100830184610df5565b605f1980848303016080850152610eb88260018701610df5565b9150808483030160a085015250610ed28160028601610df5565b9050600384015460c084015260ff600485015416151560e08401528091505094935050505056fea26469706673582212205e2ea0e476a541648f7e40a72da1c404514b9c9722233bb4de415135955fd8f564736f6c63430008140033",
  "immutableReferences": {},
  "source": "// SPDX-License-Identifier: MIT\npragma solidity ^0.8.0;\n\ncontract CarbonCredit {\n    address private _owner;\n    uint256 private _currentTokenId;\n\n    struct CreditDetails {\n        string origin;\n        string certificationStandard;\n        string projectDetails;\n        uint256 environmentalImpact;\n        bool retired;\n    }\n\n    mapping(uint256 => address) private _tokenOwners;\n    mapping(uint256 => CreditDetails) public creditDetails;\n\n    event CreditMinted(uint256 tokenId, address owner, CreditDetails details);\n    event CreditRetired(uint256 tokenId, address owner);\n    event Transfer(address indexed from, address indexed to, uint256 indexed tokenId);\n\n    constructor() {\n        _owner = msg.sender;\n        _currentTokenId = 0;\n    }\n\n    modifier onlyOwner() {\n        require(msg.sender == _owner, \"Caller is not the owner\");\n        _;\n    }\n\n    function mintCredit(\n        address recipient,\n        string memory origin,\n        string memory certificationStandard,\n        string memory projectDetails,\n        uint256 environmentalImpact\n    ) public onlyOwner returns (uint256) {\n        _currentTokenId++;\n        uint256 newItemId = _currentTokenId;\n        _tokenOwners[newItemId] = recipient;\n\n        creditDetails[newItemId] = CreditDetails({\n            origin: origin,\n            certificationStandard: certificationStandard,\n            projectDetails: projectDetails,\n            environmentalImpact: environmentalImpact,\n            retired: false\n        });\n\n        emit CreditMinted(newItemId, recipient, creditDetails[newItemId]);\n        emit Transfer(address(0), recipient, newItemId);\n\n        return newItemId;\n    }\n\n    function retireCredit(uint256 tokenId) public {\n        require(_tokenOwners[tokenId] == msg.sender, \"Caller is not the token owner\");\n        require(!creditDetails[tokenId].retired, \"Credit is already retired\");\n\n        creditDetails[tokenId].retired = true;\n        emit CreditRetired(tokenId, msg.sender);\n    }\n\n    function getCreditDetails(uint256 tokenId) public view returns (CreditDetails memory) {\n        require(_tokenOwners[tokenId] != address(0), \"Credit does not exist\");\n        return creditDetails[tokenId];\n    }\n\n    function getCurrentTokenId() public view returns (uint256) {\n        return _currentTokenId;\n    }\n\n    function transferFrom(address from, address to, uint256 tokenId) public {\n        require(_tokenOwners[tokenId] == from, \"From address is not the owner\");\n        require(to != address(0), \"Transfer to the zero address\");\n\n        _tokenOwners[tokenId] = to;\n        emit Transfer(from, to, tokenId);\n    }\n\n    function ownerOf(uint256 tokenId) public view returns (address) {\n        address owner = _tokenOwners[tokenId];\n        require(owner != address(0), \"Token does not exist\");\n        return owner;\n    }\n}",
  "sourcePath": "/Users/artimus100/Desktop/carbon-credit-marketplace/smart-contrcats/contracts/CarbonCreditToken.sol",
  "compiler": {
    "name": "solc",
    "version": "0.8.20+commit.a1b79de6.Emscripten.clang"
  },
  "schemaVersion": "3.4.16",
  "updatedAt": "2024-09-15T04:09:38.048Z",
  "devdoc": {
    "kind": "dev",
    "methods": {},
    "version": 1
  },
  "userdoc": {
    "kind": "user",
    "methods": {},
    "version": 1
  }
}